{
  "_format": "hh-sol-artifact-1",
  "contractName": "MyEpicNFT",
  "sourceName": "contracts/MyEpicNFT.sol",
  "abi": [
    {
      "inputs": [],
      "stateMutability": "nonpayable",
      "type": "constructor"
    },
    {
      "anonymous": false,
      "inputs": [
        {
          "indexed": true,
          "internalType": "address",
          "name": "owner",
          "type": "address"
        },
        {
          "indexed": true,
          "internalType": "address",
          "name": "approved",
          "type": "address"
        },
        {
          "indexed": true,
          "internalType": "uint256",
          "name": "tokenId",
          "type": "uint256"
        }
      ],
      "name": "Approval",
      "type": "event"
    },
    {
      "anonymous": false,
      "inputs": [
        {
          "indexed": true,
          "internalType": "address",
          "name": "owner",
          "type": "address"
        },
        {
          "indexed": true,
          "internalType": "address",
          "name": "operator",
          "type": "address"
        },
        {
          "indexed": false,
          "internalType": "bool",
          "name": "approved",
          "type": "bool"
        }
      ],
      "name": "ApprovalForAll",
      "type": "event"
    },
    {
      "anonymous": false,
      "inputs": [
        {
          "indexed": false,
          "internalType": "address",
          "name": "sender",
          "type": "address"
        },
        {
          "indexed": false,
          "internalType": "uint256",
          "name": "tokenId",
          "type": "uint256"
        }
      ],
      "name": "NewEpicNFTMinted",
      "type": "event"
    },
    {
      "anonymous": false,
      "inputs": [
        {
          "indexed": true,
          "internalType": "address",
          "name": "from",
          "type": "address"
        },
        {
          "indexed": true,
          "internalType": "address",
          "name": "to",
          "type": "address"
        },
        {
          "indexed": true,
          "internalType": "uint256",
          "name": "tokenId",
          "type": "uint256"
        }
      ],
      "name": "Transfer",
      "type": "event"
    },
    {
      "inputs": [
        {
          "internalType": "address",
          "name": "to",
          "type": "address"
        },
        {
          "internalType": "uint256",
          "name": "tokenId",
          "type": "uint256"
        }
      ],
      "name": "approve",
      "outputs": [],
      "stateMutability": "nonpayable",
      "type": "function"
    },
    {
      "inputs": [
        {
          "internalType": "address",
          "name": "owner",
          "type": "address"
        }
      ],
      "name": "balanceOf",
      "outputs": [
        {
          "internalType": "uint256",
          "name": "",
          "type": "uint256"
        }
      ],
      "stateMutability": "view",
      "type": "function"
    },
    {
      "inputs": [
        {
          "internalType": "uint256",
          "name": "tokenId",
          "type": "uint256"
        }
      ],
      "name": "getApproved",
      "outputs": [
        {
          "internalType": "address",
          "name": "",
          "type": "address"
        }
      ],
      "stateMutability": "view",
      "type": "function"
    },
    {
      "inputs": [],
      "name": "getMintedTime",
      "outputs": [
        {
          "internalType": "uint256",
          "name": "",
          "type": "uint256"
        }
      ],
      "stateMutability": "view",
      "type": "function"
    },
    {
      "inputs": [
        {
          "internalType": "address",
          "name": "owner",
          "type": "address"
        },
        {
          "internalType": "address",
          "name": "operator",
          "type": "address"
        }
      ],
      "name": "isApprovedForAll",
      "outputs": [
        {
          "internalType": "bool",
          "name": "",
          "type": "bool"
        }
      ],
      "stateMutability": "view",
      "type": "function"
    },
    {
      "inputs": [],
      "name": "makeAnEpicNFT",
      "outputs": [],
      "stateMutability": "nonpayable",
      "type": "function"
    },
    {
      "inputs": [],
      "name": "name",
      "outputs": [
        {
          "internalType": "string",
          "name": "",
          "type": "string"
        }
      ],
      "stateMutability": "view",
      "type": "function"
    },
    {
      "inputs": [
        {
          "internalType": "uint256",
          "name": "tokenId",
          "type": "uint256"
        }
      ],
      "name": "ownerOf",
      "outputs": [
        {
          "internalType": "address",
          "name": "",
          "type": "address"
        }
      ],
      "stateMutability": "view",
      "type": "function"
    },
    {
      "inputs": [
        {
          "internalType": "uint256",
          "name": "tokenId",
          "type": "uint256"
        }
      ],
      "name": "pickRandomFirstWord",
      "outputs": [
        {
          "internalType": "string",
          "name": "",
          "type": "string"
        }
      ],
      "stateMutability": "view",
      "type": "function"
    },
    {
      "inputs": [
        {
          "internalType": "uint256",
          "name": "tokenId",
          "type": "uint256"
        }
      ],
      "name": "pickRandomSecondWord",
      "outputs": [
        {
          "internalType": "string",
          "name": "",
          "type": "string"
        }
      ],
      "stateMutability": "view",
      "type": "function"
    },
    {
      "inputs": [
        {
          "internalType": "uint256",
          "name": "tokenId",
          "type": "uint256"
        }
      ],
      "name": "pickRandomThirdWord",
      "outputs": [
        {
          "internalType": "string",
          "name": "",
          "type": "string"
        }
      ],
      "stateMutability": "view",
      "type": "function"
    },
    {
      "inputs": [
        {
          "internalType": "address",
          "name": "from",
          "type": "address"
        },
        {
          "internalType": "address",
          "name": "to",
          "type": "address"
        },
        {
          "internalType": "uint256",
          "name": "tokenId",
          "type": "uint256"
        }
      ],
      "name": "safeTransferFrom",
      "outputs": [],
      "stateMutability": "nonpayable",
      "type": "function"
    },
    {
      "inputs": [
        {
          "internalType": "address",
          "name": "from",
          "type": "address"
        },
        {
          "internalType": "address",
          "name": "to",
          "type": "address"
        },
        {
          "internalType": "uint256",
          "name": "tokenId",
          "type": "uint256"
        },
        {
          "internalType": "bytes",
          "name": "_data",
          "type": "bytes"
        }
      ],
      "name": "safeTransferFrom",
      "outputs": [],
      "stateMutability": "nonpayable",
      "type": "function"
    },
    {
      "inputs": [
        {
          "internalType": "address",
          "name": "operator",
          "type": "address"
        },
        {
          "internalType": "bool",
          "name": "approved",
          "type": "bool"
        }
      ],
      "name": "setApprovalForAll",
      "outputs": [],
      "stateMutability": "nonpayable",
      "type": "function"
    },
    {
      "inputs": [
        {
          "internalType": "bytes4",
          "name": "interfaceId",
          "type": "bytes4"
        }
      ],
      "name": "supportsInterface",
      "outputs": [
        {
          "internalType": "bool",
          "name": "",
          "type": "bool"
        }
      ],
      "stateMutability": "view",
      "type": "function"
    },
    {
      "inputs": [],
      "name": "symbol",
      "outputs": [
        {
          "internalType": "string",
          "name": "",
          "type": "string"
        }
      ],
      "stateMutability": "view",
      "type": "function"
    },
    {
      "inputs": [
        {
          "internalType": "uint256",
          "name": "tokenId",
          "type": "uint256"
        }
      ],
      "name": "tokenURI",
      "outputs": [
        {
          "internalType": "string",
          "name": "",
          "type": "string"
        }
      ],
      "stateMutability": "view",
      "type": "function"
    },
    {
      "inputs": [
        {
          "internalType": "address",
          "name": "from",
          "type": "address"
        },
        {
          "internalType": "address",
          "name": "to",
          "type": "address"
        },
        {
          "internalType": "uint256",
          "name": "tokenId",
          "type": "uint256"
        }
      ],
      "name": "transferFrom",
      "outputs": [],
      "stateMutability": "nonpayable",
      "type": "function"
    }
  ],
  "bytecode": "0x608060405260405180610160016040528061012f8152602001620042e461012f913960089080519060200190620000389291906200067e565b506040518060c001604052806040518060400160405280600881526020017f577261746866756c00000000000000000000000000000000000000000000000081525081526020016040518060400160405280600581526020017f4561726c7900000000000000000000000000000000000000000000000000000081525081526020016040518060400160405280600981526020017f526564756e64616e74000000000000000000000000000000000000000000000081525081526020016040518060400160405280600681526020017f436c6f756479000000000000000000000000000000000000000000000000000081525081526020016040518060400160405280600681526020017f526563656e74000000000000000000000000000000000000000000000000000081525081526020016040518060400160405280600881526020017f54657272696669630000000000000000000000000000000000000000000000008152508152506009906006620001b69291906200070f565b506040518060c001604052806040518060400160405280600881526020017f50726f706f73616c00000000000000000000000000000000000000000000000081525081526020016040518060400160405280600b81526020017f436f6d7065746974696f6e00000000000000000000000000000000000000000081525081526020016040518060400160405280600a81526020017f556e69766572736974790000000000000000000000000000000000000000000081525081526020016040518060400160405280600c81526020017f4f7267616e697a6174696f6e000000000000000000000000000000000000000081525081526020016040518060400160405280600481526020017f446562740000000000000000000000000000000000000000000000000000000081525081526020016040518060400160405280600881526020017f47756964616e6365000000000000000000000000000000000000000000000000815250815250600a906006620003349291906200070f565b506040518060c001604052806040518060400160405280600781526020017f4865786f67656e0000000000000000000000000000000000000000000000000081525081526020016040518060400160405280600c81526020017f44796e6173746963616c6c79000000000000000000000000000000000000000081525081526020016040518060400160405280600c81526020017f4c616d7061646564726f6d79000000000000000000000000000000000000000081525081526020016040518060400160405280600581526020017f436f70657300000000000000000000000000000000000000000000000000000081525081526020016040518060400160405280600881526020017f53717561696c657200000000000000000000000000000000000000000000000081525081526020016040518060400160405280600b81526020017f506c6174797374656d6f6e000000000000000000000000000000000000000000815250815250600b906006620004b29291906200070f565b50348015620004c057600080fd5b506040518060400160405280600981526020017f5371756172654e465400000000000000000000000000000000000000000000008152506040518060400160405280600681526020017f53515541524500000000000000000000000000000000000000000000000000008152508160009080519060200190620005459291906200067e565b5080600190805190602001906200055e9291906200067e565b505050620005ac6040518060400160405280601e81526020017f54686973206973206d79204e465420636f6e74726163742e20576f6168210000815250620005b260201b6200113b1760201c565b62000930565b6200065281604051602401620005c9919062000844565b6040516020818303038152906040527f41304fac000000000000000000000000000000000000000000000000000000007bffffffffffffffffffffffffffffffffffffffffffffffffffffffff19166020820180517bffffffffffffffffffffffffffffffffffffffffffffffffffffffff83818316178352505050506200065560201b60201c565b50565b60008151905060006a636f6e736f6c652e6c6f679050602083016000808483855afa5050505050565b8280546200068c90620008ba565b90600052602060002090601f016020900481019282620006b05760008555620006fc565b82601f10620006cb57805160ff1916838001178555620006fc565b82800160010185558215620006fc579182015b82811115620006fb578251825591602001919060010190620006de565b5b5090506200070b919062000776565b5090565b82805482825590600052602060002090810192821562000763579160200282015b8281111562000762578251829080519060200190620007519291906200067e565b509160200191906001019062000730565b5b50905062000772919062000795565b5090565b5b808211156200079157600081600090555060010162000777565b5090565b5b80821115620007b95760008181620007af9190620007bd565b5060010162000796565b5090565b508054620007cb90620008ba565b6000825580601f10620007df575062000800565b601f016020900490600052602060002090810190620007ff919062000776565b5b50565b6000620008108262000868565b6200081c818562000873565b93506200082e81856020860162000884565b62000839816200091f565b840191505092915050565b6000602082019050818103600083015262000860818462000803565b905092915050565b600081519050919050565b600082825260208201905092915050565b60005b83811015620008a457808201518184015260208101905062000887565b83811115620008b4576000848401525b50505050565b60006002820490506001821680620008d357607f821691505b60208210811415620008ea57620008e9620008f0565b5b50919050565b7f4e487b7100000000000000000000000000000000000000000000000000000000600052602260045260246000fd5b6000601f19601f8301169050919050565b6139a480620009406000396000f3fe608060405234801561001057600080fd5b50600436106101165760003560e01c806377c68e2e116100a2578063b88d4fde11610071578063b88d4fde14610305578063c575757a14610321578063c87b56dd14610351578063de9d132f14610381578063e985e9c51461038b57610116565b806377c68e2e1461027d57806395d89b411461029b578063a22cb465146102b9578063b187301f146102d557610116565b806323b872dd116100e957806323b872dd146101b55780632de38d68146101d157806342842e0e146102015780636352211e1461021d57806370a082311461024d57610116565b806301ffc9a71461011b57806306fdde031461014b578063081812fc14610169578063095ea7b314610199575b600080fd5b6101356004803603810190610130919061251c565b6103bb565b60405161014291906131fa565b60405180910390f35b61015361049d565b6040516101609190613215565b60405180910390f35b610183600480360381019061017e919061256e565b61052f565b604051610190919061316a565b60405180910390f35b6101b360048036038101906101ae91906124e0565b6105b4565b005b6101cf60048036038101906101ca91906123da565b6106cc565b005b6101eb60048036038101906101e6919061256e565b61072c565b6040516101f89190613215565b60405180910390f35b61021b600480360381019061021691906123da565b61084a565b005b6102376004803603810190610232919061256e565b61086a565b604051610244919061316a565b60405180910390f35b61026760048036038101906102629190612375565b61091c565b6040516102749190613495565b60405180910390f35b6102856109d4565b6040516102929190613495565b60405180910390f35b6102a36109e5565b6040516102b09190613215565b60405180910390f35b6102d360048036038101906102ce91906124a4565b610a77565b005b6102ef60048036038101906102ea919061256e565b610a8d565b6040516102fc9190613215565b60405180910390f35b61031f600480360381019061031a9190612429565b610bab565b005b61033b6004803603810190610336919061256e565b610c0d565b6040516103489190613215565b60405180910390f35b61036b6004803603810190610366919061256e565b610d2b565b6040516103789190613215565b60405180910390f35b610389610e7d565b005b6103a560048036038101906103a0919061239e565b6110a7565b6040516103b291906131fa565b60405180910390f35b60007f80ac58cd000000000000000000000000000000000000000000000000000000007bffffffffffffffffffffffffffffffffffffffffffffffffffffffff1916827bffffffffffffffffffffffffffffffffffffffffffffffffffffffff1916148061048657507f5b5e139f000000000000000000000000000000000000000000000000000000007bffffffffffffffffffffffffffffffffffffffffffffffffffffffff1916827bffffffffffffffffffffffffffffffffffffffffffffffffffffffff1916145b806104965750610495826111d4565b5b9050919050565b6060600080546104ac90613734565b80601f01602080910402602001604051908101604052809291908181526020018280546104d890613734565b80156105255780601f106104fa57610100808354040283529160200191610525565b820191906000526020600020905b81548152906001019060200180831161050857829003601f168201915b5050505050905090565b600061053a8261123e565b610579576040517f08c379a0000000000000000000000000000000000000000000000000000000008152600401610570906133d5565b60405180910390fd5b6004600083815260200190815260200160002060009054906101000a900473ffffffffffffffffffffffffffffffffffffffff169050919050565b60006105bf8261086a565b90508073ffffffffffffffffffffffffffffffffffffffff168373ffffffffffffffffffffffffffffffffffffffff161415610630576040517f08c379a000000000000000000000000000000000000000000000000000000000815260040161062790613435565b60405180910390fd5b8073ffffffffffffffffffffffffffffffffffffffff1661064f6112aa565b73ffffffffffffffffffffffffffffffffffffffff16148061067e575061067d816106786112aa565b6110a7565b5b6106bd576040517f08c379a00000000000000000000000000000000000000000000000000000000081526004016106b490613315565b60405180910390fd5b6106c783836112b2565b505050565b6106dd6106d76112aa565b8261136b565b61071c576040517f08c379a000000000000000000000000000000000000000000000000000000000815260040161071390613455565b60405180910390fd5b610727838383611449565b505050565b6060600061076061073c846116a5565b60405160200161074c9190613126565b604051602081830303815290604052611852565b90506009805490508161077391906137af565b9050600981815481106107af577f4e487b7100000000000000000000000000000000000000000000000000000000600052603260045260246000fd5b9060005260206000200180546107c490613734565b80601f01602080910402602001604051908101604052809291908181526020018280546107f090613734565b801561083d5780601f106108125761010080835404028352916020019161083d565b820191906000526020600020905b81548152906001019060200180831161082057829003601f168201915b5050505050915050919050565b61086583838360405180602001604052806000815250610bab565b505050565b6000806002600084815260200190815260200160002060009054906101000a900473ffffffffffffffffffffffffffffffffffffffff169050600073ffffffffffffffffffffffffffffffffffffffff168173ffffffffffffffffffffffffffffffffffffffff161415610913576040517f08c379a000000000000000000000000000000000000000000000000000000000815260040161090a90613355565b60405180910390fd5b80915050919050565b60008073ffffffffffffffffffffffffffffffffffffffff168273ffffffffffffffffffffffffffffffffffffffff16141561098d576040517f08c379a000000000000000000000000000000000000000000000000000000000815260040161098490613335565b60405180910390fd5b600360008373ffffffffffffffffffffffffffffffffffffffff1673ffffffffffffffffffffffffffffffffffffffff168152602001908152602001600020549050919050565b60006109e06007611885565b905090565b6060600180546109f490613734565b80601f0160208091040260200160405190810160405280929190818152602001828054610a2090613734565b8015610a6d5780601f10610a4257610100808354040283529160200191610a6d565b820191906000526020600020905b815481529060010190602001808311610a5057829003601f168201915b5050505050905090565b610a89610a826112aa565b8383611893565b5050565b60606000610ac1610a9d846116a5565b604051602001610aad91906130bf565b604051602081830303815290604052611852565b9050600a8054905081610ad491906137af565b9050600a8181548110610b10577f4e487b7100000000000000000000000000000000000000000000000000000000600052603260045260246000fd5b906000526020600020018054610b2590613734565b80601f0160208091040260200160405190810160405280929190818152602001828054610b5190613734565b8015610b9e5780601f10610b7357610100808354040283529160200191610b9e565b820191906000526020600020905b815481529060010190602001808311610b8157829003601f168201915b5050505050915050919050565b610bbc610bb66112aa565b8361136b565b610bfb576040517f08c379a0000000000000000000000000000000000000000000000000000000008152600401610bf290613455565b60405180910390fd5b610c0784848484611a00565b50505050565b60606000610c41610c1d846116a5565b604051602001610c2d919061309d565b604051602081830303815290604052611852565b9050600b8054905081610c5491906137af565b9050600b8181548110610c90577f4e487b7100000000000000000000000000000000000000000000000000000000600052603260045260246000fd5b906000526020600020018054610ca590613734565b80601f0160208091040260200160405190810160405280929190818152602001828054610cd190613734565b8015610d1e5780601f10610cf357610100808354040283529160200191610d1e565b820191906000526020600020905b815481529060010190602001808311610d0157829003601f168201915b5050505050915050919050565b6060610d368261123e565b610d75576040517f08c379a0000000000000000000000000000000000000000000000000000000008152600401610d6c906133b5565b60405180910390fd5b6000600660008481526020019081526020016000208054610d9590613734565b80601f0160208091040260200160405190810160405280929190818152602001828054610dc190613734565b8015610e0e5780601f10610de357610100808354040283529160200191610e0e565b820191906000526020600020905b815481529060010190602001808311610df157829003601f168201915b505050505090506000610e1f611a5c565b9050600081511415610e35578192505050610e78565b600082511115610e6a578082604051602001610e52929190613003565b60405160208183030381529060405292505050610e78565b610e7384611a73565b925050505b919050565b6000610e896007611885565b905060328110610ece576040517f08c379a0000000000000000000000000000000000000000000000000000000008152600401610ec590613475565b60405180910390fd5b6000610ed98261072c565b90506000610ee683610a8d565b90506000610ef384610c0d565b90506000838383604051602001610f0c93929190613027565b60405160208183030381529060405290506000600882604051602001610f3392919061306e565b60405160208183030381529060405290506000610f7883610f5384611b1a565b604051602001610f649291906130e1565b604051602081830303815290604052611b1a565b9050600081604051602001610f8d9190613148565b6040516020818303038152906040529050610fdc6040518060400160405280601581526020017f0a2d2d2d2d2d2d2d2d2d2d2d2d2d2d2d2d2d2d2d2d000000000000000000000081525061113b565b610fe58161113b565b6110236040518060400160405280601581526020017f2d2d2d2d2d2d2d2d2d2d2d2d2d2d2d2d2d2d2d2d0a000000000000000000000081525061113b565b61102d3389611cb9565b6110378882611cd7565b6110416007611d4b565b61106460405180606001604052806025815260200161390a602591398933611d61565b7febb98688741ffa4c7589bf325de30cf7becb63de567842e1ccdb6cb949fdc82c33896040516110959291906131d1565b60405180910390a15050505050505050565b6000600560008473ffffffffffffffffffffffffffffffffffffffff1673ffffffffffffffffffffffffffffffffffffffff16815260200190815260200160002060008373ffffffffffffffffffffffffffffffffffffffff1673ffffffffffffffffffffffffffffffffffffffff16815260200190815260200160002060009054906101000a900460ff16905092915050565b6111d18160405160240161114f9190613215565b6040516020818303038152906040527f41304fac000000000000000000000000000000000000000000000000000000007bffffffffffffffffffffffffffffffffffffffffffffffffffffffff19166020820180517bffffffffffffffffffffffffffffffffffffffffffffffffffffffff8381831617835250505050611e00565b50565b60007f01ffc9a7000000000000000000000000000000000000000000000000000000007bffffffffffffffffffffffffffffffffffffffffffffffffffffffff1916827bffffffffffffffffffffffffffffffffffffffffffffffffffffffff1916149050919050565b60008073ffffffffffffffffffffffffffffffffffffffff166002600084815260200190815260200160002060009054906101000a900473ffffffffffffffffffffffffffffffffffffffff1673ffffffffffffffffffffffffffffffffffffffff1614159050919050565b600033905090565b816004600083815260200190815260200160002060006101000a81548173ffffffffffffffffffffffffffffffffffffffff021916908373ffffffffffffffffffffffffffffffffffffffff160217905550808273ffffffffffffffffffffffffffffffffffffffff166113258361086a565b73ffffffffffffffffffffffffffffffffffffffff167f8c5be1e5ebec7d5bd14f71427d1e84f3dd0314c0f7b2291e5b200ac8c7c3b92560405160405180910390a45050565b60006113768261123e565b6113b5576040517f08c379a00000000000000000000000000000000000000000000000000000000081526004016113ac906132f5565b60405180910390fd5b60006113c08361086a565b90508073ffffffffffffffffffffffffffffffffffffffff168473ffffffffffffffffffffffffffffffffffffffff16148061142f57508373ffffffffffffffffffffffffffffffffffffffff166114178461052f565b73ffffffffffffffffffffffffffffffffffffffff16145b80611440575061143f81856110a7565b5b91505092915050565b8273ffffffffffffffffffffffffffffffffffffffff166114698261086a565b73ffffffffffffffffffffffffffffffffffffffff16146114bf576040517f08c379a00000000000000000000000000000000000000000000000000000000081526004016114b6906133f5565b60405180910390fd5b600073ffffffffffffffffffffffffffffffffffffffff168273ffffffffffffffffffffffffffffffffffffffff16141561152f576040517f08c379a0000000000000000000000000000000000000000000000000000000008152600401611526906132b5565b60405180910390fd5b61153a838383611e29565b6115456000826112b2565b6001600360008573ffffffffffffffffffffffffffffffffffffffff1673ffffffffffffffffffffffffffffffffffffffff1681526020019081526020016000206000828254611595919061364a565b925050819055506001600360008473ffffffffffffffffffffffffffffffffffffffff1673ffffffffffffffffffffffffffffffffffffffff16815260200190815260200160002060008282546115ec9190613569565b92505081905550816002600083815260200190815260200160002060006101000a81548173ffffffffffffffffffffffffffffffffffffffff021916908373ffffffffffffffffffffffffffffffffffffffff160217905550808273ffffffffffffffffffffffffffffffffffffffff168473ffffffffffffffffffffffffffffffffffffffff167fddf252ad1be2c89b69c2b068fc378daa952ba7f163c4a11628f55a4df523b3ef60405160405180910390a4505050565b606060008214156116ed576040518060400160405280600181526020017f3000000000000000000000000000000000000000000000000000000000000000815250905061184d565b600082905060005b6000821461171f57808061170890613766565b915050600a8261171891906135bf565b91506116f5565b60008167ffffffffffffffff811115611761577f4e487b7100000000000000000000000000000000000000000000000000000000600052604160045260246000fd5b6040519080825280601f01601f1916602001820160405280156117935781602001600182028036833780820191505090505b5090505b60008514611846576001826117ac919061364a565b9150600a856117bb91906137af565b60306117c79190613569565b60f81b818381518110611803577f4e487b7100000000000000000000000000000000000000000000000000000000600052603260045260246000fd5b60200101907effffffffffffffffffffffffffffffffffffffffffffffffffffffffffffff1916908160001a905350600a8561183f91906135bf565b9450611797565b8093505050505b919050565b6000816040516020016118659190612fec565b6040516020818303038152906040528051906020012060001c9050919050565b600081600001549050919050565b8173ffffffffffffffffffffffffffffffffffffffff168373ffffffffffffffffffffffffffffffffffffffff161415611902576040517f08c379a00000000000000000000000000000000000000000000000000000000081526004016118f9906132d5565b60405180910390fd5b80600560008573ffffffffffffffffffffffffffffffffffffffff1673ffffffffffffffffffffffffffffffffffffffff16815260200190815260200160002060008473ffffffffffffffffffffffffffffffffffffffff1673ffffffffffffffffffffffffffffffffffffffff16815260200190815260200160002060006101000a81548160ff0219169083151502179055508173ffffffffffffffffffffffffffffffffffffffff168373ffffffffffffffffffffffffffffffffffffffff167f17307eab39ab6107e8899845ad3d59bd9653f200f220920489ca2b5937696c31836040516119f391906131fa565b60405180910390a3505050565b611a0b848484611449565b611a1784848484611e2e565b611a56576040517f08c379a0000000000000000000000000000000000000000000000000000000008152600401611a4d90613275565b60405180910390fd5b50505050565b606060405180602001604052806000815250905090565b6060611a7e8261123e565b611abd576040517f08c379a0000000000000000000000000000000000000000000000000000000008152600401611ab490613415565b60405180910390fd5b6000611ac7611a5c565b90506000815111611ae75760405180602001604052806000815250611b12565b80611af1846116a5565b604051602001611b02929190613003565b6040516020818303038152906040525b915050919050565b6060600082511415611b3d57604051806020016040528060008152509050611cb4565b600060405180606001604052806040815260200161392f6040913990506000600360028551611b6c9190613569565b611b7691906135bf565b6004611b8291906135f0565b90506000602082611b939190613569565b67ffffffffffffffff811115611bd2577f4e487b7100000000000000000000000000000000000000000000000000000000600052604160045260246000fd5b6040519080825280601f01601f191660200182016040528015611c045781602001600182028036833780820191505090505b509050818152600183018586518101602084015b81831015611c73576003830192508251603f8160121c168501518253600182019150603f81600c1c168501518253600182019150603f8160061c168501518253600182019150603f8116850151825360018201915050611c18565b600389510660018114611c8d5760028114611c9d57611ca8565b613d3d60f01b6002830352611ca8565b603d60f81b60018303525b50505050508093505050505b919050565b611cd3828260405180602001604052806000815250611fc5565b5050565b611ce08261123e565b611d1f576040517f08c379a0000000000000000000000000000000000000000000000000000000008152600401611d1690613375565b60405180910390fd5b80600660008481526020019081526020016000209080519060200190611d46929190612201565b505050565b6001816000016000828254019250508190555050565b611dfb838383604051602401611d7993929190613237565b6040516020818303038152906040527fe3849f79000000000000000000000000000000000000000000000000000000007bffffffffffffffffffffffffffffffffffffffffffffffffffffffff19166020820180517bffffffffffffffffffffffffffffffffffffffffffffffffffffffff8381831617835250505050611e00565b505050565b60008151905060006a636f6e736f6c652e6c6f679050602083016000808483855afa5050505050565b505050565b6000611e4f8473ffffffffffffffffffffffffffffffffffffffff16612020565b15611fb8578373ffffffffffffffffffffffffffffffffffffffff1663150b7a02611e786112aa565b8786866040518563ffffffff1660e01b8152600401611e9a9493929190613185565b602060405180830381600087803b158015611eb457600080fd5b505af1925050508015611ee557506040513d601f19601f82011682018060405250810190611ee29190612545565b60015b611f68573d8060008114611f15576040519150601f19603f3d011682016040523d82523d6000602084013e611f1a565b606091505b50600081511415611f60576040517f08c379a0000000000000000000000000000000000000000000000000000000008152600401611f5790613275565b60405180910390fd5b805181602001fd5b63150b7a0260e01b7bffffffffffffffffffffffffffffffffffffffffffffffffffffffff1916817bffffffffffffffffffffffffffffffffffffffffffffffffffffffff191614915050611fbd565b600190505b949350505050565b611fcf8383612033565b611fdc6000848484611e2e565b61201b576040517f08c379a000000000000000000000000000000000000000000000000000000000815260040161201290613275565b60405180910390fd5b505050565b600080823b905060008111915050919050565b600073ffffffffffffffffffffffffffffffffffffffff168273ffffffffffffffffffffffffffffffffffffffff1614156120a3576040517f08c379a000000000000000000000000000000000000000000000000000000000815260040161209a90613395565b60405180910390fd5b6120ac8161123e565b156120ec576040517f08c379a00000000000000000000000000000000000000000000000000000000081526004016120e390613295565b60405180910390fd5b6120f860008383611e29565b6001600360008473ffffffffffffffffffffffffffffffffffffffff1673ffffffffffffffffffffffffffffffffffffffff16815260200190815260200160002060008282546121489190613569565b92505081905550816002600083815260200190815260200160002060006101000a81548173ffffffffffffffffffffffffffffffffffffffff021916908373ffffffffffffffffffffffffffffffffffffffff160217905550808273ffffffffffffffffffffffffffffffffffffffff16600073ffffffffffffffffffffffffffffffffffffffff167fddf252ad1be2c89b69c2b068fc378daa952ba7f163c4a11628f55a4df523b3ef60405160405180910390a45050565b82805461220d90613734565b90600052602060002090601f01602090048101928261222f5760008555612276565b82601f1061224857805160ff1916838001178555612276565b82800160010185558215612276579182015b8281111561227557825182559160200191906001019061225a565b5b5090506122839190612287565b5090565b5b808211156122a0576000816000905550600101612288565b5090565b60006122b76122b2846134e1565b6134b0565b9050828152602081018484840111156122cf57600080fd5b6122da8482856136f2565b509392505050565b6000813590506122f1816138ad565b92915050565b600081359050612306816138c4565b92915050565b60008135905061231b816138db565b92915050565b600081519050612330816138db565b92915050565b600082601f83011261234757600080fd5b81356123578482602086016122a4565b91505092915050565b60008135905061236f816138f2565b92915050565b60006020828403121561238757600080fd5b6000612395848285016122e2565b91505092915050565b600080604083850312156123b157600080fd5b60006123bf858286016122e2565b92505060206123d0858286016122e2565b9150509250929050565b6000806000606084860312156123ef57600080fd5b60006123fd868287016122e2565b935050602061240e868287016122e2565b925050604061241f86828701612360565b9150509250925092565b6000806000806080858703121561243f57600080fd5b600061244d878288016122e2565b945050602061245e878288016122e2565b935050604061246f87828801612360565b925050606085013567ffffffffffffffff81111561248c57600080fd5b61249887828801612336565b91505092959194509250565b600080604083850312156124b757600080fd5b60006124c5858286016122e2565b92505060206124d6858286016122f7565b9150509250929050565b600080604083850312156124f357600080fd5b6000612501858286016122e2565b925050602061251285828601612360565b9150509250929050565b60006020828403121561252e57600080fd5b600061253c8482850161230c565b91505092915050565b60006020828403121561255757600080fd5b600061256584828501612321565b91505092915050565b60006020828403121561258057600080fd5b600061258e84828501612360565b91505092915050565b6125a08161367e565b82525050565b6125af81613690565b82525050565b60006125c082613526565b6125ca818561353c565b93506125da818560208601613701565b6125e38161389c565b840191505092915050565b60006125f982613531565b612603818561354d565b9350612613818560208601613701565b61261c8161389c565b840191505092915050565b600061263282613531565b61263c818561355e565b935061264c818560208601613701565b80840191505092915050565b6000815461266581613734565b61266f818661355e565b9450600182166000811461268a576001811461269b576126ce565b60ff198316865281860193506126ce565b6126a485613511565b60005b838110156126c6578154818901526001820191506020810190506126a7565b838801955050505b50505092915050565b60006126e460328361354d565b91507f4552433732313a207472616e7366657220746f206e6f6e20455243373231526560008301527f63656976657220696d706c656d656e74657200000000000000000000000000006020830152604082019050919050565b600061274a601c8361354d565b91507f4552433732313a20746f6b656e20616c7265616479206d696e746564000000006000830152602082019050919050565b600061278a600a8361355e565b91507f54484952445f574f5244000000000000000000000000000000000000000000006000830152600a82019050919050565b60006127ca60248361354d565b91507f4552433732313a207472616e7366657220746f20746865207a65726f2061646460008301527f72657373000000000000000000000000000000000000000000000000000000006020830152604082019050919050565b600061283060198361354d565b91507f4552433732313a20617070726f766520746f2063616c6c6572000000000000006000830152602082019050919050565b600061287060638361355e565b91507f222c20226465736372697074696f6e223a20224120686967686c79206163636c60008301527f61696d656420636f6c6c656374696f6e206f6620737175617265732e222c202260208301527f696d616765223a2022646174613a696d6167652f7376672b786d6c3b6261736560408301527f36342c00000000000000000000000000000000000000000000000000000000006060830152606382019050919050565b6000612922600b8361355e565b91507f5345434f4e445f574f52440000000000000000000000000000000000000000006000830152600b82019050919050565b6000612962602c8361354d565b91507f4552433732313a206f70657261746f7220717565727920666f72206e6f6e657860008301527f697374656e7420746f6b656e00000000000000000000000000000000000000006020830152604082019050919050565b60006129c8600d8361355e565b91507f3c2f746578743e3c2f7376673e000000000000000000000000000000000000006000830152600d82019050919050565b6000612a0860018361355e565b91507f20000000000000000000000000000000000000000000000000000000000000006000830152600182019050919050565b6000612a4860388361354d565b91507f4552433732313a20617070726f76652063616c6c6572206973206e6f74206f7760008301527f6e6572206e6f7220617070726f76656420666f7220616c6c00000000000000006020830152604082019050919050565b6000612aae602a8361354d565b91507f4552433732313a2062616c616e636520717565727920666f7220746865207a6560008301527f726f2061646472657373000000000000000000000000000000000000000000006020830152604082019050919050565b6000612b1460298361354d565b91507f4552433732313a206f776e657220717565727920666f72206e6f6e657869737460008301527f656e7420746f6b656e00000000000000000000000000000000000000000000006020830152604082019050919050565b6000612b7a602e8361354d565b91507f45524337323155524953746f726167653a2055524920736574206f66206e6f6e60008301527f6578697374656e7420746f6b656e0000000000000000000000000000000000006020830152604082019050919050565b6000612be060028361355e565b91507f227d0000000000000000000000000000000000000000000000000000000000006000830152600282019050919050565b6000612c2060208361354d565b91507f4552433732313a206d696e7420746f20746865207a65726f20616464726573736000830152602082019050919050565b6000612c6060318361354d565b91507f45524337323155524953746f726167653a2055524920717565727920666f722060008301527f6e6f6e6578697374656e7420746f6b656e0000000000000000000000000000006020830152604082019050919050565b6000612cc6602c8361354d565b91507f4552433732313a20617070726f76656420717565727920666f72206e6f6e657860008301527f697374656e7420746f6b656e00000000000000000000000000000000000000006020830152604082019050919050565b6000612d2c60298361354d565b91507f4552433732313a207472616e73666572206f6620746f6b656e2074686174206960008301527f73206e6f74206f776e00000000000000000000000000000000000000000000006020830152604082019050919050565b6000612d92602f8361354d565b91507f4552433732314d657461646174613a2055524920717565727920666f72206e6f60008301527f6e6578697374656e7420746f6b656e00000000000000000000000000000000006020830152604082019050919050565b6000612df8600a8361355e565b91507f7b226e616d65223a2022000000000000000000000000000000000000000000006000830152600a82019050919050565b6000612e3860218361354d565b91507f4552433732313a20617070726f76616c20746f2063757272656e74206f776e6560008301527f72000000000000000000000000000000000000000000000000000000000000006020830152604082019050919050565b6000612e9e600a8361355e565b91507f46495253545f574f5244000000000000000000000000000000000000000000006000830152600a82019050919050565b6000612ede601d8361355e565b91507f646174613a6170706c69636174696f6e2f6a736f6e3b6261736536342c0000006000830152601d82019050919050565b6000612f1e60318361354d565b91507f4552433732313a207472616e736665722063616c6c6572206973206e6f74206f60008301527f776e6572206e6f7220617070726f7665640000000000000000000000000000006020830152604082019050919050565b6000612f8460228361354d565b91507f4e6f204e465420617661696c61626c652c20636f6d65206261636b206c61746560008301527f72210000000000000000000000000000000000000000000000000000000000006020830152604082019050919050565b612fe6816136e8565b82525050565b6000612ff88284612627565b915081905092915050565b600061300f8285612627565b915061301b8284612627565b91508190509392505050565b60006130338286612627565b915061303e826129fb565b915061304a8285612627565b9150613055826129fb565b91506130618284612627565b9150819050949350505050565b600061307a8285612658565b91506130868284612627565b9150613091826129bb565b91508190509392505050565b60006130a88261277d565b91506130b48284612627565b915081905092915050565b60006130ca82612915565b91506130d68284612627565b915081905092915050565b60006130ec82612deb565b91506130f88285612627565b915061310382612863565b915061310f8284612627565b915061311a82612bd3565b91508190509392505050565b600061313182612e91565b915061313d8284612627565b915081905092915050565b600061315382612ed1565b915061315f8284612627565b915081905092915050565b600060208201905061317f6000830184612597565b92915050565b600060808201905061319a6000830187612597565b6131a76020830186612597565b6131b46040830185612fdd565b81810360608301526131c681846125b5565b905095945050505050565b60006040820190506131e66000830185612597565b6131f36020830184612fdd565b9392505050565b600060208201905061320f60008301846125a6565b92915050565b6000602082019050818103600083015261322f81846125ee565b905092915050565b6000606082019050818103600083015261325181866125ee565b90506132606020830185612fdd565b61326d6040830184612597565b949350505050565b6000602082019050818103600083015261328e816126d7565b9050919050565b600060208201905081810360008301526132ae8161273d565b9050919050565b600060208201905081810360008301526132ce816127bd565b9050919050565b600060208201905081810360008301526132ee81612823565b9050919050565b6000602082019050818103600083015261330e81612955565b9050919050565b6000602082019050818103600083015261332e81612a3b565b9050919050565b6000602082019050818103600083015261334e81612aa1565b9050919050565b6000602082019050818103600083015261336e81612b07565b9050919050565b6000602082019050818103600083015261338e81612b6d565b9050919050565b600060208201905081810360008301526133ae81612c13565b9050919050565b600060208201905081810360008301526133ce81612c53565b9050919050565b600060208201905081810360008301526133ee81612cb9565b9050919050565b6000602082019050818103600083015261340e81612d1f565b9050919050565b6000602082019050818103600083015261342e81612d85565b9050919050565b6000602082019050818103600083015261344e81612e2b565b9050919050565b6000602082019050818103600083015261346e81612f11565b9050919050565b6000602082019050818103600083015261348e81612f77565b9050919050565b60006020820190506134aa6000830184612fdd565b92915050565b6000604051905081810181811067ffffffffffffffff821117156134d7576134d661386d565b5b8060405250919050565b600067ffffffffffffffff8211156134fc576134fb61386d565b5b601f19601f8301169050602081019050919050565b60008190508160005260206000209050919050565b600081519050919050565b600081519050919050565b600082825260208201905092915050565b600082825260208201905092915050565b600081905092915050565b6000613574826136e8565b915061357f836136e8565b9250827fffffffffffffffffffffffffffffffffffffffffffffffffffffffffffffffff038211156135b4576135b36137e0565b5b828201905092915050565b60006135ca826136e8565b91506135d5836136e8565b9250826135e5576135e461380f565b5b828204905092915050565b60006135fb826136e8565b9150613606836136e8565b9250817fffffffffffffffffffffffffffffffffffffffffffffffffffffffffffffffff048311821515161561363f5761363e6137e0565b5b828202905092915050565b6000613655826136e8565b9150613660836136e8565b925082821015613673576136726137e0565b5b828203905092915050565b6000613689826136c8565b9050919050565b60008115159050919050565b60007fffffffff0000000000000000000000000000000000000000000000000000000082169050919050565b600073ffffffffffffffffffffffffffffffffffffffff82169050919050565b6000819050919050565b82818337600083830152505050565b60005b8381101561371f578082015181840152602081019050613704565b8381111561372e576000848401525b50505050565b6000600282049050600182168061374c57607f821691505b602082108114156137605761375f61383e565b5b50919050565b6000613771826136e8565b91507fffffffffffffffffffffffffffffffffffffffffffffffffffffffffffffffff8214156137a4576137a36137e0565b5b600182019050919050565b60006137ba826136e8565b91506137c5836136e8565b9250826137d5576137d461380f565b5b828206905092915050565b7f4e487b7100000000000000000000000000000000000000000000000000000000600052601160045260246000fd5b7f4e487b7100000000000000000000000000000000000000000000000000000000600052601260045260246000fd5b7f4e487b7100000000000000000000000000000000000000000000000000000000600052602260045260246000fd5b7f4e487b7100000000000000000000000000000000000000000000000000000000600052604160045260246000fd5b6000601f19601f8301169050919050565b6138b68161367e565b81146138c157600080fd5b50565b6138cd81613690565b81146138d857600080fd5b50565b6138e48161369c565b81146138ef57600080fd5b50565b6138fb816136e8565b811461390657600080fd5b5056fe416e204e465420772f20494420257320686173206265656e206d696e74656420746f2025734142434445464748494a4b4c4d4e4f505152535455565758595a6162636465666768696a6b6c6d6e6f707172737475767778797a303132333435363738392b2fa264697066735822122036fe8b57d476b1fccbc3f005e191737f49cc05c4e64c1bef902dcc146d376bdb64736f6c634300080000333c73766720786d6c6e733d27687474703a2f2f7777772e77332e6f72672f323030302f73766727207072657365727665417370656374526174696f3d27784d696e594d696e206d656574272076696577426f783d273020302033353020333530273e3c7374796c653e2e62617365207b2066696c6c3a2077686974653b20666f6e742d66616d696c793a2073657269663b20666f6e742d73697a653a20323470783b207d3c2f7374796c653e3c726563742077696474683d273130302527206865696768743d2731303025272066696c6c3d27626c61636b27202f3e3c7465787420783d273530252720793d273530252720636c6173733d27626173652720646f6d696e616e742d626173656c696e653d276d6964646c652720746578742d616e63686f723d276d6964646c65273e",
  "linkReferences": {},
  "deployedLinkReferences": {}
}