{
  "_format": "hh-sol-artifact-1",
  "contractName": "MyEpicNFT",
  "sourceName": "contracts/MyEpicNFT.sol",
  "abi": [
    {
      "inputs": [],
      "stateMutability": "nonpayable",
      "type": "constructor"
    },
    {
      "anonymous": false,
      "inputs": [
        {
          "indexed": true,
          "internalType": "address",
          "name": "owner",
          "type": "address"
        },
        {
          "indexed": true,
          "internalType": "address",
          "name": "approved",
          "type": "address"
        },
        {
          "indexed": true,
          "internalType": "uint256",
          "name": "tokenId",
          "type": "uint256"
        }
      ],
      "name": "Approval",
      "type": "event"
    },
    {
      "anonymous": false,
      "inputs": [
        {
          "indexed": true,
          "internalType": "address",
          "name": "owner",
          "type": "address"
        },
        {
          "indexed": true,
          "internalType": "address",
          "name": "operator",
          "type": "address"
        },
        {
          "indexed": false,
          "internalType": "bool",
          "name": "approved",
          "type": "bool"
        }
      ],
      "name": "ApprovalForAll",
      "type": "event"
    },
    {
      "anonymous": false,
      "inputs": [
        {
          "indexed": false,
          "internalType": "address",
          "name": "sender",
          "type": "address"
        },
        {
          "indexed": false,
          "internalType": "uint256",
          "name": "tokenId",
          "type": "uint256"
        }
      ],
      "name": "NewEpicNFTMinted",
      "type": "event"
    },
    {
      "anonymous": false,
      "inputs": [
        {
          "indexed": true,
          "internalType": "address",
          "name": "from",
          "type": "address"
        },
        {
          "indexed": true,
          "internalType": "address",
          "name": "to",
          "type": "address"
        },
        {
          "indexed": true,
          "internalType": "uint256",
          "name": "tokenId",
          "type": "uint256"
        }
      ],
      "name": "Transfer",
      "type": "event"
    },
    {
      "inputs": [
        {
          "internalType": "address",
          "name": "to",
          "type": "address"
        },
        {
          "internalType": "uint256",
          "name": "tokenId",
          "type": "uint256"
        }
      ],
      "name": "approve",
      "outputs": [],
      "stateMutability": "nonpayable",
      "type": "function"
    },
    {
      "inputs": [
        {
          "internalType": "address",
          "name": "owner",
          "type": "address"
        }
      ],
      "name": "balanceOf",
      "outputs": [
        {
          "internalType": "uint256",
          "name": "",
          "type": "uint256"
        }
      ],
      "stateMutability": "view",
      "type": "function"
    },
    {
      "inputs": [
        {
          "internalType": "uint256",
          "name": "tokenId",
          "type": "uint256"
        }
      ],
      "name": "getApproved",
      "outputs": [
        {
          "internalType": "address",
          "name": "",
          "type": "address"
        }
      ],
      "stateMutability": "view",
      "type": "function"
    },
    {
      "inputs": [
        {
          "internalType": "address",
          "name": "owner",
          "type": "address"
        },
        {
          "internalType": "address",
          "name": "operator",
          "type": "address"
        }
      ],
      "name": "isApprovedForAll",
      "outputs": [
        {
          "internalType": "bool",
          "name": "",
          "type": "bool"
        }
      ],
      "stateMutability": "view",
      "type": "function"
    },
    {
      "inputs": [],
      "name": "makeAnEpicNFT",
      "outputs": [],
      "stateMutability": "nonpayable",
      "type": "function"
    },
    {
      "inputs": [],
      "name": "name",
      "outputs": [
        {
          "internalType": "string",
          "name": "",
          "type": "string"
        }
      ],
      "stateMutability": "view",
      "type": "function"
    },
    {
      "inputs": [
        {
          "internalType": "uint256",
          "name": "tokenId",
          "type": "uint256"
        }
      ],
      "name": "ownerOf",
      "outputs": [
        {
          "internalType": "address",
          "name": "",
          "type": "address"
        }
      ],
      "stateMutability": "view",
      "type": "function"
    },
    {
      "inputs": [
        {
          "internalType": "uint256",
          "name": "tokenId",
          "type": "uint256"
        }
      ],
      "name": "pickRandomFirstWord",
      "outputs": [
        {
          "internalType": "string",
          "name": "",
          "type": "string"
        }
      ],
      "stateMutability": "view",
      "type": "function"
    },
    {
      "inputs": [
        {
          "internalType": "uint256",
          "name": "tokenId",
          "type": "uint256"
        }
      ],
      "name": "pickRandomSecondWord",
      "outputs": [
        {
          "internalType": "string",
          "name": "",
          "type": "string"
        }
      ],
      "stateMutability": "view",
      "type": "function"
    },
    {
      "inputs": [
        {
          "internalType": "uint256",
          "name": "tokenId",
          "type": "uint256"
        }
      ],
      "name": "pickRandomThirdWord",
      "outputs": [
        {
          "internalType": "string",
          "name": "",
          "type": "string"
        }
      ],
      "stateMutability": "view",
      "type": "function"
    },
    {
      "inputs": [
        {
          "internalType": "address",
          "name": "from",
          "type": "address"
        },
        {
          "internalType": "address",
          "name": "to",
          "type": "address"
        },
        {
          "internalType": "uint256",
          "name": "tokenId",
          "type": "uint256"
        }
      ],
      "name": "safeTransferFrom",
      "outputs": [],
      "stateMutability": "nonpayable",
      "type": "function"
    },
    {
      "inputs": [
        {
          "internalType": "address",
          "name": "from",
          "type": "address"
        },
        {
          "internalType": "address",
          "name": "to",
          "type": "address"
        },
        {
          "internalType": "uint256",
          "name": "tokenId",
          "type": "uint256"
        },
        {
          "internalType": "bytes",
          "name": "_data",
          "type": "bytes"
        }
      ],
      "name": "safeTransferFrom",
      "outputs": [],
      "stateMutability": "nonpayable",
      "type": "function"
    },
    {
      "inputs": [
        {
          "internalType": "address",
          "name": "operator",
          "type": "address"
        },
        {
          "internalType": "bool",
          "name": "approved",
          "type": "bool"
        }
      ],
      "name": "setApprovalForAll",
      "outputs": [],
      "stateMutability": "nonpayable",
      "type": "function"
    },
    {
      "inputs": [
        {
          "internalType": "bytes4",
          "name": "interfaceId",
          "type": "bytes4"
        }
      ],
      "name": "supportsInterface",
      "outputs": [
        {
          "internalType": "bool",
          "name": "",
          "type": "bool"
        }
      ],
      "stateMutability": "view",
      "type": "function"
    },
    {
      "inputs": [],
      "name": "symbol",
      "outputs": [
        {
          "internalType": "string",
          "name": "",
          "type": "string"
        }
      ],
      "stateMutability": "view",
      "type": "function"
    },
    {
      "inputs": [
        {
          "internalType": "uint256",
          "name": "tokenId",
          "type": "uint256"
        }
      ],
      "name": "tokenURI",
      "outputs": [
        {
          "internalType": "string",
          "name": "",
          "type": "string"
        }
      ],
      "stateMutability": "view",
      "type": "function"
    },
    {
      "inputs": [
        {
          "internalType": "address",
          "name": "from",
          "type": "address"
        },
        {
          "internalType": "address",
          "name": "to",
          "type": "address"
        },
        {
          "internalType": "uint256",
          "name": "tokenId",
          "type": "uint256"
        }
      ],
      "name": "transferFrom",
      "outputs": [],
      "stateMutability": "nonpayable",
      "type": "function"
    }
  ],
  "bytecode": "0x608060405260405180610160016040528061012f8152602001620041e161012f913960089080519060200190620000389291906200067e565b506040518060c001604052806040518060400160405280600881526020017f577261746866756c00000000000000000000000000000000000000000000000081525081526020016040518060400160405280600581526020017f4561726c7900000000000000000000000000000000000000000000000000000081525081526020016040518060400160405280600981526020017f526564756e64616e74000000000000000000000000000000000000000000000081525081526020016040518060400160405280600681526020017f436c6f756479000000000000000000000000000000000000000000000000000081525081526020016040518060400160405280600681526020017f526563656e74000000000000000000000000000000000000000000000000000081525081526020016040518060400160405280600881526020017f54657272696669630000000000000000000000000000000000000000000000008152508152506009906006620001b69291906200070f565b506040518060c001604052806040518060400160405280600881526020017f50726f706f73616c00000000000000000000000000000000000000000000000081525081526020016040518060400160405280600b81526020017f436f6d7065746974696f6e00000000000000000000000000000000000000000081525081526020016040518060400160405280600a81526020017f556e69766572736974790000000000000000000000000000000000000000000081525081526020016040518060400160405280600c81526020017f4f7267616e697a6174696f6e000000000000000000000000000000000000000081525081526020016040518060400160405280600481526020017f446562740000000000000000000000000000000000000000000000000000000081525081526020016040518060400160405280600881526020017f47756964616e6365000000000000000000000000000000000000000000000000815250815250600a906006620003349291906200070f565b506040518060c001604052806040518060400160405280600781526020017f4865786f67656e0000000000000000000000000000000000000000000000000081525081526020016040518060400160405280600c81526020017f44796e6173746963616c6c79000000000000000000000000000000000000000081525081526020016040518060400160405280600c81526020017f4c616d7061646564726f6d79000000000000000000000000000000000000000081525081526020016040518060400160405280600581526020017f436f70657300000000000000000000000000000000000000000000000000000081525081526020016040518060400160405280600881526020017f53717561696c657200000000000000000000000000000000000000000000000081525081526020016040518060400160405280600b81526020017f506c6174797374656d6f6e000000000000000000000000000000000000000000815250815250600b906006620004b29291906200070f565b50348015620004c057600080fd5b506040518060400160405280600981526020017f5371756172654e465400000000000000000000000000000000000000000000008152506040518060400160405280600681526020017f53515541524500000000000000000000000000000000000000000000000000008152508160009080519060200190620005459291906200067e565b5080600190805190602001906200055e9291906200067e565b505050620005ac6040518060400160405280601e81526020017f54686973206973206d79204e465420636f6e74726163742e20576f6168210000815250620005b260201b620010be1760201c565b62000930565b6200065281604051602401620005c9919062000844565b6040516020818303038152906040527f41304fac000000000000000000000000000000000000000000000000000000007bffffffffffffffffffffffffffffffffffffffffffffffffffffffff19166020820180517bffffffffffffffffffffffffffffffffffffffffffffffffffffffff83818316178352505050506200065560201b60201c565b50565b60008151905060006a636f6e736f6c652e6c6f679050602083016000808483855afa5050505050565b8280546200068c90620008ba565b90600052602060002090601f016020900481019282620006b05760008555620006fc565b82601f10620006cb57805160ff1916838001178555620006fc565b82800160010185558215620006fc579182015b82811115620006fb578251825591602001919060010190620006de565b5b5090506200070b919062000776565b5090565b82805482825590600052602060002090810192821562000763579160200282015b8281111562000762578251829080519060200190620007519291906200067e565b509160200191906001019062000730565b5b50905062000772919062000795565b5090565b5b808211156200079157600081600090555060010162000777565b5090565b5b80821115620007b95760008181620007af9190620007bd565b5060010162000796565b5090565b508054620007cb90620008ba565b6000825580601f10620007df575062000800565b601f016020900490600052602060002090810190620007ff919062000776565b5b50565b6000620008108262000868565b6200081c818562000873565b93506200082e81856020860162000884565b62000839816200091f565b840191505092915050565b6000602082019050818103600083015262000860818462000803565b905092915050565b600081519050919050565b600082825260208201905092915050565b60005b83811015620008a457808201518184015260208101905062000887565b83811115620008b4576000848401525b50505050565b60006002820490506001821680620008d357607f821691505b60208210811415620008ea57620008e9620008f0565b5b50919050565b7f4e487b7100000000000000000000000000000000000000000000000000000000600052602260045260246000fd5b6000601f19601f8301169050919050565b6138a180620009406000396000f3fe608060405234801561001057600080fd5b506004361061010b5760003560e01c806370a08231116100a2578063b88d4fde11610071578063b88d4fde146102dc578063c575757a146102f8578063c87b56dd14610328578063de9d132f14610358578063e985e9c5146103625761010b565b806370a082311461024257806395d89b4114610272578063a22cb46514610290578063b187301f146102ac5761010b565b806323b872dd116100de57806323b872dd146101aa5780632de38d68146101c657806342842e0e146101f65780636352211e146102125761010b565b806301ffc9a71461011057806306fdde0314610140578063081812fc1461015e578063095ea7b31461018e575b600080fd5b61012a6004803603810190610125919061249f565b610392565b6040516101379190613117565b60405180910390f35b610148610474565b6040516101559190613132565b60405180910390f35b610178600480360381019061017391906124f1565b610506565b6040516101859190613087565b60405180910390f35b6101a860048036038101906101a39190612463565b61058b565b005b6101c460048036038101906101bf919061235d565b6106a3565b005b6101e060048036038101906101db91906124f1565b610703565b6040516101ed9190613132565b60405180910390f35b610210600480360381019061020b919061235d565b610821565b005b61022c600480360381019061022791906124f1565b610841565b6040516102399190613087565b60405180910390f35b61025c600480360381019061025791906122f8565b6108f3565b6040516102699190613392565b60405180910390f35b61027a6109ab565b6040516102879190613132565b60405180910390f35b6102aa60048036038101906102a59190612427565b610a3d565b005b6102c660048036038101906102c191906124f1565b610a53565b6040516102d39190613132565b60405180910390f35b6102f660048036038101906102f191906123ac565b610b71565b005b610312600480360381019061030d91906124f1565b610bd3565b60405161031f9190613132565b60405180910390f35b610342600480360381019061033d91906124f1565b610cf1565b60405161034f9190613132565b60405180910390f35b610360610e43565b005b61037c60048036038101906103779190612321565b61102a565b6040516103899190613117565b60405180910390f35b60007f80ac58cd000000000000000000000000000000000000000000000000000000007bffffffffffffffffffffffffffffffffffffffffffffffffffffffff1916827bffffffffffffffffffffffffffffffffffffffffffffffffffffffff1916148061045d57507f5b5e139f000000000000000000000000000000000000000000000000000000007bffffffffffffffffffffffffffffffffffffffffffffffffffffffff1916827bffffffffffffffffffffffffffffffffffffffffffffffffffffffff1916145b8061046d575061046c82611157565b5b9050919050565b60606000805461048390613631565b80601f01602080910402602001604051908101604052809291908181526020018280546104af90613631565b80156104fc5780601f106104d1576101008083540402835291602001916104fc565b820191906000526020600020905b8154815290600101906020018083116104df57829003601f168201915b5050505050905090565b6000610511826111c1565b610550576040517f08c379a0000000000000000000000000000000000000000000000000000000008152600401610547906132f2565b60405180910390fd5b6004600083815260200190815260200160002060009054906101000a900473ffffffffffffffffffffffffffffffffffffffff169050919050565b600061059682610841565b90508073ffffffffffffffffffffffffffffffffffffffff168373ffffffffffffffffffffffffffffffffffffffff161415610607576040517f08c379a00000000000000000000000000000000000000000000000000000000081526004016105fe90613352565b60405180910390fd5b8073ffffffffffffffffffffffffffffffffffffffff1661062661122d565b73ffffffffffffffffffffffffffffffffffffffff16148061065557506106548161064f61122d565b61102a565b5b610694576040517f08c379a000000000000000000000000000000000000000000000000000000000815260040161068b90613232565b60405180910390fd5b61069e8383611235565b505050565b6106b46106ae61122d565b826112ee565b6106f3576040517f08c379a00000000000000000000000000000000000000000000000000000000081526004016106ea90613372565b60405180910390fd5b6106fe8383836113cc565b505050565b6060600061073761071384611628565b6040516020016107239190613043565b6040516020818303038152906040526117d5565b90506009805490508161074a91906136ac565b905060098181548110610786577f4e487b7100000000000000000000000000000000000000000000000000000000600052603260045260246000fd5b90600052602060002001805461079b90613631565b80601f01602080910402602001604051908101604052809291908181526020018280546107c790613631565b80156108145780601f106107e957610100808354040283529160200191610814565b820191906000526020600020905b8154815290600101906020018083116107f757829003601f168201915b5050505050915050919050565b61083c83838360405180602001604052806000815250610b71565b505050565b6000806002600084815260200190815260200160002060009054906101000a900473ffffffffffffffffffffffffffffffffffffffff169050600073ffffffffffffffffffffffffffffffffffffffff168173ffffffffffffffffffffffffffffffffffffffff1614156108ea576040517f08c379a00000000000000000000000000000000000000000000000000000000081526004016108e190613272565b60405180910390fd5b80915050919050565b60008073ffffffffffffffffffffffffffffffffffffffff168273ffffffffffffffffffffffffffffffffffffffff161415610964576040517f08c379a000000000000000000000000000000000000000000000000000000000815260040161095b90613252565b60405180910390fd5b600360008373ffffffffffffffffffffffffffffffffffffffff1673ffffffffffffffffffffffffffffffffffffffff168152602001908152602001600020549050919050565b6060600180546109ba90613631565b80601f01602080910402602001604051908101604052809291908181526020018280546109e690613631565b8015610a335780601f10610a0857610100808354040283529160200191610a33565b820191906000526020600020905b815481529060010190602001808311610a1657829003601f168201915b5050505050905090565b610a4f610a4861122d565b8383611808565b5050565b60606000610a87610a6384611628565b604051602001610a739190612fdc565b6040516020818303038152906040526117d5565b9050600a8054905081610a9a91906136ac565b9050600a8181548110610ad6577f4e487b7100000000000000000000000000000000000000000000000000000000600052603260045260246000fd5b906000526020600020018054610aeb90613631565b80601f0160208091040260200160405190810160405280929190818152602001828054610b1790613631565b8015610b645780601f10610b3957610100808354040283529160200191610b64565b820191906000526020600020905b815481529060010190602001808311610b4757829003601f168201915b5050505050915050919050565b610b82610b7c61122d565b836112ee565b610bc1576040517f08c379a0000000000000000000000000000000000000000000000000000000008152600401610bb890613372565b60405180910390fd5b610bcd84848484611975565b50505050565b60606000610c07610be384611628565b604051602001610bf39190612fba565b6040516020818303038152906040526117d5565b9050600b8054905081610c1a91906136ac565b9050600b8181548110610c56577f4e487b7100000000000000000000000000000000000000000000000000000000600052603260045260246000fd5b906000526020600020018054610c6b90613631565b80601f0160208091040260200160405190810160405280929190818152602001828054610c9790613631565b8015610ce45780601f10610cb957610100808354040283529160200191610ce4565b820191906000526020600020905b815481529060010190602001808311610cc757829003601f168201915b5050505050915050919050565b6060610cfc826111c1565b610d3b576040517f08c379a0000000000000000000000000000000000000000000000000000000008152600401610d32906132d2565b60405180910390fd5b6000600660008481526020019081526020016000208054610d5b90613631565b80601f0160208091040260200160405190810160405280929190818152602001828054610d8790613631565b8015610dd45780601f10610da957610100808354040283529160200191610dd4565b820191906000526020600020905b815481529060010190602001808311610db757829003601f168201915b505050505090506000610de56119d1565b9050600081511415610dfb578192505050610e3e565b600082511115610e30578082604051602001610e18929190612f20565b60405160208183030381529060405292505050610e3e565b610e39846119e8565b925050505b919050565b6000610e4f6007611a8f565b90506000610e5c82610703565b90506000610e6983610a53565b90506000610e7684610bd3565b90506000838383604051602001610e8f93929190612f44565b60405160208183030381529060405290506000600882604051602001610eb6929190612f8b565b60405160208183030381529060405290506000610efb83610ed684611a9d565b604051602001610ee7929190612ffe565b604051602081830303815290604052611a9d565b9050600081604051602001610f109190613065565b6040516020818303038152906040529050610f5f6040518060400160405280601581526020017f0a2d2d2d2d2d2d2d2d2d2d2d2d2d2d2d2d2d2d2d2d00000000000000000000008152506110be565b610f68816110be565b610fa66040518060400160405280601581526020017f2d2d2d2d2d2d2d2d2d2d2d2d2d2d2d2d2d2d2d2d0a00000000000000000000008152506110be565b610fb03389611c3c565b610fba8882611c5a565b610fc46007611cce565b610fe7604051806060016040528060258152602001613807602591398933611ce4565b7febb98688741ffa4c7589bf325de30cf7becb63de567842e1ccdb6cb949fdc82c33896040516110189291906130ee565b60405180910390a15050505050505050565b6000600560008473ffffffffffffffffffffffffffffffffffffffff1673ffffffffffffffffffffffffffffffffffffffff16815260200190815260200160002060008373ffffffffffffffffffffffffffffffffffffffff1673ffffffffffffffffffffffffffffffffffffffff16815260200190815260200160002060009054906101000a900460ff16905092915050565b611154816040516024016110d29190613132565b6040516020818303038152906040527f41304fac000000000000000000000000000000000000000000000000000000007bffffffffffffffffffffffffffffffffffffffffffffffffffffffff19166020820180517bffffffffffffffffffffffffffffffffffffffffffffffffffffffff8381831617835250505050611d83565b50565b60007f01ffc9a7000000000000000000000000000000000000000000000000000000007bffffffffffffffffffffffffffffffffffffffffffffffffffffffff1916827bffffffffffffffffffffffffffffffffffffffffffffffffffffffff1916149050919050565b60008073ffffffffffffffffffffffffffffffffffffffff166002600084815260200190815260200160002060009054906101000a900473ffffffffffffffffffffffffffffffffffffffff1673ffffffffffffffffffffffffffffffffffffffff1614159050919050565b600033905090565b816004600083815260200190815260200160002060006101000a81548173ffffffffffffffffffffffffffffffffffffffff021916908373ffffffffffffffffffffffffffffffffffffffff160217905550808273ffffffffffffffffffffffffffffffffffffffff166112a883610841565b73ffffffffffffffffffffffffffffffffffffffff167f8c5be1e5ebec7d5bd14f71427d1e84f3dd0314c0f7b2291e5b200ac8c7c3b92560405160405180910390a45050565b60006112f9826111c1565b611338576040517f08c379a000000000000000000000000000000000000000000000000000000000815260040161132f90613212565b60405180910390fd5b600061134383610841565b90508073ffffffffffffffffffffffffffffffffffffffff168473ffffffffffffffffffffffffffffffffffffffff1614806113b257508373ffffffffffffffffffffffffffffffffffffffff1661139a84610506565b73ffffffffffffffffffffffffffffffffffffffff16145b806113c357506113c2818561102a565b5b91505092915050565b8273ffffffffffffffffffffffffffffffffffffffff166113ec82610841565b73ffffffffffffffffffffffffffffffffffffffff1614611442576040517f08c379a000000000000000000000000000000000000000000000000000000000815260040161143990613312565b60405180910390fd5b600073ffffffffffffffffffffffffffffffffffffffff168273ffffffffffffffffffffffffffffffffffffffff1614156114b2576040517f08c379a00000000000000000000000000000000000000000000000000000000081526004016114a9906131d2565b60405180910390fd5b6114bd838383611dac565b6114c8600082611235565b6001600360008573ffffffffffffffffffffffffffffffffffffffff1673ffffffffffffffffffffffffffffffffffffffff16815260200190815260200160002060008282546115189190613547565b925050819055506001600360008473ffffffffffffffffffffffffffffffffffffffff1673ffffffffffffffffffffffffffffffffffffffff168152602001908152602001600020600082825461156f9190613466565b92505081905550816002600083815260200190815260200160002060006101000a81548173ffffffffffffffffffffffffffffffffffffffff021916908373ffffffffffffffffffffffffffffffffffffffff160217905550808273ffffffffffffffffffffffffffffffffffffffff168473ffffffffffffffffffffffffffffffffffffffff167fddf252ad1be2c89b69c2b068fc378daa952ba7f163c4a11628f55a4df523b3ef60405160405180910390a4505050565b60606000821415611670576040518060400160405280600181526020017f300000000000000000000000000000000000000000000000000000000000000081525090506117d0565b600082905060005b600082146116a257808061168b90613663565b915050600a8261169b91906134bc565b9150611678565b60008167ffffffffffffffff8111156116e4577f4e487b7100000000000000000000000000000000000000000000000000000000600052604160045260246000fd5b6040519080825280601f01601f1916602001820160405280156117165781602001600182028036833780820191505090505b5090505b600085146117c95760018261172f9190613547565b9150600a8561173e91906136ac565b603061174a9190613466565b60f81b818381518110611786577f4e487b7100000000000000000000000000000000000000000000000000000000600052603260045260246000fd5b60200101907effffffffffffffffffffffffffffffffffffffffffffffffffffffffffffff1916908160001a905350600a856117c291906134bc565b945061171a565b8093505050505b919050565b6000816040516020016117e89190612f09565b6040516020818303038152906040528051906020012060001c9050919050565b8173ffffffffffffffffffffffffffffffffffffffff168373ffffffffffffffffffffffffffffffffffffffff161415611877576040517f08c379a000000000000000000000000000000000000000000000000000000000815260040161186e906131f2565b60405180910390fd5b80600560008573ffffffffffffffffffffffffffffffffffffffff1673ffffffffffffffffffffffffffffffffffffffff16815260200190815260200160002060008473ffffffffffffffffffffffffffffffffffffffff1673ffffffffffffffffffffffffffffffffffffffff16815260200190815260200160002060006101000a81548160ff0219169083151502179055508173ffffffffffffffffffffffffffffffffffffffff168373ffffffffffffffffffffffffffffffffffffffff167f17307eab39ab6107e8899845ad3d59bd9653f200f220920489ca2b5937696c31836040516119689190613117565b60405180910390a3505050565b6119808484846113cc565b61198c84848484611db1565b6119cb576040517f08c379a00000000000000000000000000000000000000000000000000000000081526004016119c290613192565b60405180910390fd5b50505050565b606060405180602001604052806000815250905090565b60606119f3826111c1565b611a32576040517f08c379a0000000000000000000000000000000000000000000000000000000008152600401611a2990613332565b60405180910390fd5b6000611a3c6119d1565b90506000815111611a5c5760405180602001604052806000815250611a87565b80611a6684611628565b604051602001611a77929190612f20565b6040516020818303038152906040525b915050919050565b600081600001549050919050565b6060600082511415611ac057604051806020016040528060008152509050611c37565b600060405180606001604052806040815260200161382c6040913990506000600360028551611aef9190613466565b611af991906134bc565b6004611b0591906134ed565b90506000602082611b169190613466565b67ffffffffffffffff811115611b55577f4e487b7100000000000000000000000000000000000000000000000000000000600052604160045260246000fd5b6040519080825280601f01601f191660200182016040528015611b875781602001600182028036833780820191505090505b509050818152600183018586518101602084015b81831015611bf6576003830192508251603f8160121c168501518253600182019150603f81600c1c168501518253600182019150603f8160061c168501518253600182019150603f8116850151825360018201915050611b9b565b600389510660018114611c105760028114611c2057611c2b565b613d3d60f01b6002830352611c2b565b603d60f81b60018303525b50505050508093505050505b919050565b611c56828260405180602001604052806000815250611f48565b5050565b611c63826111c1565b611ca2576040517f08c379a0000000000000000000000000000000000000000000000000000000008152600401611c9990613292565b60405180910390fd5b80600660008481526020019081526020016000209080519060200190611cc9929190612184565b505050565b6001816000016000828254019250508190555050565b611d7e838383604051602401611cfc93929190613154565b6040516020818303038152906040527fe3849f79000000000000000000000000000000000000000000000000000000007bffffffffffffffffffffffffffffffffffffffffffffffffffffffff19166020820180517bffffffffffffffffffffffffffffffffffffffffffffffffffffffff8381831617835250505050611d83565b505050565b60008151905060006a636f6e736f6c652e6c6f679050602083016000808483855afa5050505050565b505050565b6000611dd28473ffffffffffffffffffffffffffffffffffffffff16611fa3565b15611f3b578373ffffffffffffffffffffffffffffffffffffffff1663150b7a02611dfb61122d565b8786866040518563ffffffff1660e01b8152600401611e1d94939291906130a2565b602060405180830381600087803b158015611e3757600080fd5b505af1925050508015611e6857506040513d601f19601f82011682018060405250810190611e6591906124c8565b60015b611eeb573d8060008114611e98576040519150601f19603f3d011682016040523d82523d6000602084013e611e9d565b606091505b50600081511415611ee3576040517f08c379a0000000000000000000000000000000000000000000000000000000008152600401611eda90613192565b60405180910390fd5b805181602001fd5b63150b7a0260e01b7bffffffffffffffffffffffffffffffffffffffffffffffffffffffff1916817bffffffffffffffffffffffffffffffffffffffffffffffffffffffff191614915050611f40565b600190505b949350505050565b611f528383611fb6565b611f5f6000848484611db1565b611f9e576040517f08c379a0000000000000000000000000000000000000000000000000000000008152600401611f9590613192565b60405180910390fd5b505050565b600080823b905060008111915050919050565b600073ffffffffffffffffffffffffffffffffffffffff168273ffffffffffffffffffffffffffffffffffffffff161415612026576040517f08c379a000000000000000000000000000000000000000000000000000000000815260040161201d906132b2565b60405180910390fd5b61202f816111c1565b1561206f576040517f08c379a0000000000000000000000000000000000000000000000000000000008152600401612066906131b2565b60405180910390fd5b61207b60008383611dac565b6001600360008473ffffffffffffffffffffffffffffffffffffffff1673ffffffffffffffffffffffffffffffffffffffff16815260200190815260200160002060008282546120cb9190613466565b92505081905550816002600083815260200190815260200160002060006101000a81548173ffffffffffffffffffffffffffffffffffffffff021916908373ffffffffffffffffffffffffffffffffffffffff160217905550808273ffffffffffffffffffffffffffffffffffffffff16600073ffffffffffffffffffffffffffffffffffffffff167fddf252ad1be2c89b69c2b068fc378daa952ba7f163c4a11628f55a4df523b3ef60405160405180910390a45050565b82805461219090613631565b90600052602060002090601f0160209004810192826121b257600085556121f9565b82601f106121cb57805160ff19168380011785556121f9565b828001600101855582156121f9579182015b828111156121f85782518255916020019190600101906121dd565b5b509050612206919061220a565b5090565b5b8082111561222357600081600090555060010161220b565b5090565b600061223a612235846133de565b6133ad565b90508281526020810184848401111561225257600080fd5b61225d8482856135ef565b509392505050565b600081359050612274816137aa565b92915050565b600081359050612289816137c1565b92915050565b60008135905061229e816137d8565b92915050565b6000815190506122b3816137d8565b92915050565b600082601f8301126122ca57600080fd5b81356122da848260208601612227565b91505092915050565b6000813590506122f2816137ef565b92915050565b60006020828403121561230a57600080fd5b600061231884828501612265565b91505092915050565b6000806040838503121561233457600080fd5b600061234285828601612265565b925050602061235385828601612265565b9150509250929050565b60008060006060848603121561237257600080fd5b600061238086828701612265565b935050602061239186828701612265565b92505060406123a2868287016122e3565b9150509250925092565b600080600080608085870312156123c257600080fd5b60006123d087828801612265565b94505060206123e187828801612265565b93505060406123f2878288016122e3565b925050606085013567ffffffffffffffff81111561240f57600080fd5b61241b878288016122b9565b91505092959194509250565b6000806040838503121561243a57600080fd5b600061244885828601612265565b92505060206124598582860161227a565b9150509250929050565b6000806040838503121561247657600080fd5b600061248485828601612265565b9250506020612495858286016122e3565b9150509250929050565b6000602082840312156124b157600080fd5b60006124bf8482850161228f565b91505092915050565b6000602082840312156124da57600080fd5b60006124e8848285016122a4565b91505092915050565b60006020828403121561250357600080fd5b6000612511848285016122e3565b91505092915050565b6125238161357b565b82525050565b6125328161358d565b82525050565b600061254382613423565b61254d8185613439565b935061255d8185602086016135fe565b61256681613799565b840191505092915050565b600061257c8261342e565b612586818561344a565b93506125968185602086016135fe565b61259f81613799565b840191505092915050565b60006125b58261342e565b6125bf818561345b565b93506125cf8185602086016135fe565b80840191505092915050565b600081546125e881613631565b6125f2818661345b565b9450600182166000811461260d576001811461261e57612651565b60ff19831686528186019350612651565b6126278561340e565b60005b838110156126495781548189015260018201915060208101905061262a565b838801955050505b50505092915050565b600061266760328361344a565b91507f4552433732313a207472616e7366657220746f206e6f6e20455243373231526560008301527f63656976657220696d706c656d656e74657200000000000000000000000000006020830152604082019050919050565b60006126cd601c8361344a565b91507f4552433732313a20746f6b656e20616c7265616479206d696e746564000000006000830152602082019050919050565b600061270d600a8361345b565b91507f54484952445f574f5244000000000000000000000000000000000000000000006000830152600a82019050919050565b600061274d60248361344a565b91507f4552433732313a207472616e7366657220746f20746865207a65726f2061646460008301527f72657373000000000000000000000000000000000000000000000000000000006020830152604082019050919050565b60006127b360198361344a565b91507f4552433732313a20617070726f766520746f2063616c6c6572000000000000006000830152602082019050919050565b60006127f360638361345b565b91507f222c20226465736372697074696f6e223a20224120686967686c79206163636c60008301527f61696d656420636f6c6c656374696f6e206f6620737175617265732e222c202260208301527f696d616765223a2022646174613a696d6167652f7376672b786d6c3b6261736560408301527f36342c00000000000000000000000000000000000000000000000000000000006060830152606382019050919050565b60006128a5600b8361345b565b91507f5345434f4e445f574f52440000000000000000000000000000000000000000006000830152600b82019050919050565b60006128e5602c8361344a565b91507f4552433732313a206f70657261746f7220717565727920666f72206e6f6e657860008301527f697374656e7420746f6b656e00000000000000000000000000000000000000006020830152604082019050919050565b600061294b600d8361345b565b91507f3c2f746578743e3c2f7376673e000000000000000000000000000000000000006000830152600d82019050919050565b600061298b60018361345b565b91507f20000000000000000000000000000000000000000000000000000000000000006000830152600182019050919050565b60006129cb60388361344a565b91507f4552433732313a20617070726f76652063616c6c6572206973206e6f74206f7760008301527f6e6572206e6f7220617070726f76656420666f7220616c6c00000000000000006020830152604082019050919050565b6000612a31602a8361344a565b91507f4552433732313a2062616c616e636520717565727920666f7220746865207a6560008301527f726f2061646472657373000000000000000000000000000000000000000000006020830152604082019050919050565b6000612a9760298361344a565b91507f4552433732313a206f776e657220717565727920666f72206e6f6e657869737460008301527f656e7420746f6b656e00000000000000000000000000000000000000000000006020830152604082019050919050565b6000612afd602e8361344a565b91507f45524337323155524953746f726167653a2055524920736574206f66206e6f6e60008301527f6578697374656e7420746f6b656e0000000000000000000000000000000000006020830152604082019050919050565b6000612b6360028361345b565b91507f227d0000000000000000000000000000000000000000000000000000000000006000830152600282019050919050565b6000612ba360208361344a565b91507f4552433732313a206d696e7420746f20746865207a65726f20616464726573736000830152602082019050919050565b6000612be360318361344a565b91507f45524337323155524953746f726167653a2055524920717565727920666f722060008301527f6e6f6e6578697374656e7420746f6b656e0000000000000000000000000000006020830152604082019050919050565b6000612c49602c8361344a565b91507f4552433732313a20617070726f76656420717565727920666f72206e6f6e657860008301527f697374656e7420746f6b656e00000000000000000000000000000000000000006020830152604082019050919050565b6000612caf60298361344a565b91507f4552433732313a207472616e73666572206f6620746f6b656e2074686174206960008301527f73206e6f74206f776e00000000000000000000000000000000000000000000006020830152604082019050919050565b6000612d15602f8361344a565b91507f4552433732314d657461646174613a2055524920717565727920666f72206e6f60008301527f6e6578697374656e7420746f6b656e00000000000000000000000000000000006020830152604082019050919050565b6000612d7b600a8361345b565b91507f7b226e616d65223a2022000000000000000000000000000000000000000000006000830152600a82019050919050565b6000612dbb60218361344a565b91507f4552433732313a20617070726f76616c20746f2063757272656e74206f776e6560008301527f72000000000000000000000000000000000000000000000000000000000000006020830152604082019050919050565b6000612e21600a8361345b565b91507f46495253545f574f5244000000000000000000000000000000000000000000006000830152600a82019050919050565b6000612e61601d8361345b565b91507f646174613a6170706c69636174696f6e2f6a736f6e3b6261736536342c0000006000830152601d82019050919050565b6000612ea160318361344a565b91507f4552433732313a207472616e736665722063616c6c6572206973206e6f74206f60008301527f776e6572206e6f7220617070726f7665640000000000000000000000000000006020830152604082019050919050565b612f03816135e5565b82525050565b6000612f1582846125aa565b915081905092915050565b6000612f2c82856125aa565b9150612f3882846125aa565b91508190509392505050565b6000612f5082866125aa565b9150612f5b8261297e565b9150612f6782856125aa565b9150612f728261297e565b9150612f7e82846125aa565b9150819050949350505050565b6000612f9782856125db565b9150612fa382846125aa565b9150612fae8261293e565b91508190509392505050565b6000612fc582612700565b9150612fd182846125aa565b915081905092915050565b6000612fe782612898565b9150612ff382846125aa565b915081905092915050565b600061300982612d6e565b915061301582856125aa565b9150613020826127e6565b915061302c82846125aa565b915061303782612b56565b91508190509392505050565b600061304e82612e14565b915061305a82846125aa565b915081905092915050565b600061307082612e54565b915061307c82846125aa565b915081905092915050565b600060208201905061309c600083018461251a565b92915050565b60006080820190506130b7600083018761251a565b6130c4602083018661251a565b6130d16040830185612efa565b81810360608301526130e38184612538565b905095945050505050565b6000604082019050613103600083018561251a565b6131106020830184612efa565b9392505050565b600060208201905061312c6000830184612529565b92915050565b6000602082019050818103600083015261314c8184612571565b905092915050565b6000606082019050818103600083015261316e8186612571565b905061317d6020830185612efa565b61318a604083018461251a565b949350505050565b600060208201905081810360008301526131ab8161265a565b9050919050565b600060208201905081810360008301526131cb816126c0565b9050919050565b600060208201905081810360008301526131eb81612740565b9050919050565b6000602082019050818103600083015261320b816127a6565b9050919050565b6000602082019050818103600083015261322b816128d8565b9050919050565b6000602082019050818103600083015261324b816129be565b9050919050565b6000602082019050818103600083015261326b81612a24565b9050919050565b6000602082019050818103600083015261328b81612a8a565b9050919050565b600060208201905081810360008301526132ab81612af0565b9050919050565b600060208201905081810360008301526132cb81612b96565b9050919050565b600060208201905081810360008301526132eb81612bd6565b9050919050565b6000602082019050818103600083015261330b81612c3c565b9050919050565b6000602082019050818103600083015261332b81612ca2565b9050919050565b6000602082019050818103600083015261334b81612d08565b9050919050565b6000602082019050818103600083015261336b81612dae565b9050919050565b6000602082019050818103600083015261338b81612e94565b9050919050565b60006020820190506133a76000830184612efa565b92915050565b6000604051905081810181811067ffffffffffffffff821117156133d4576133d361376a565b5b8060405250919050565b600067ffffffffffffffff8211156133f9576133f861376a565b5b601f19601f8301169050602081019050919050565b60008190508160005260206000209050919050565b600081519050919050565b600081519050919050565b600082825260208201905092915050565b600082825260208201905092915050565b600081905092915050565b6000613471826135e5565b915061347c836135e5565b9250827fffffffffffffffffffffffffffffffffffffffffffffffffffffffffffffffff038211156134b1576134b06136dd565b5b828201905092915050565b60006134c7826135e5565b91506134d2836135e5565b9250826134e2576134e161370c565b5b828204905092915050565b60006134f8826135e5565b9150613503836135e5565b9250817fffffffffffffffffffffffffffffffffffffffffffffffffffffffffffffffff048311821515161561353c5761353b6136dd565b5b828202905092915050565b6000613552826135e5565b915061355d836135e5565b9250828210156135705761356f6136dd565b5b828203905092915050565b6000613586826135c5565b9050919050565b60008115159050919050565b60007fffffffff0000000000000000000000000000000000000000000000000000000082169050919050565b600073ffffffffffffffffffffffffffffffffffffffff82169050919050565b6000819050919050565b82818337600083830152505050565b60005b8381101561361c578082015181840152602081019050613601565b8381111561362b576000848401525b50505050565b6000600282049050600182168061364957607f821691505b6020821081141561365d5761365c61373b565b5b50919050565b600061366e826135e5565b91507fffffffffffffffffffffffffffffffffffffffffffffffffffffffffffffffff8214156136a1576136a06136dd565b5b600182019050919050565b60006136b7826135e5565b91506136c2836135e5565b9250826136d2576136d161370c565b5b828206905092915050565b7f4e487b7100000000000000000000000000000000000000000000000000000000600052601160045260246000fd5b7f4e487b7100000000000000000000000000000000000000000000000000000000600052601260045260246000fd5b7f4e487b7100000000000000000000000000000000000000000000000000000000600052602260045260246000fd5b7f4e487b7100000000000000000000000000000000000000000000000000000000600052604160045260246000fd5b6000601f19601f8301169050919050565b6137b38161357b565b81146137be57600080fd5b50565b6137ca8161358d565b81146137d557600080fd5b50565b6137e181613599565b81146137ec57600080fd5b50565b6137f8816135e5565b811461380357600080fd5b5056fe416e204e465420772f20494420257320686173206265656e206d696e74656420746f2025734142434445464748494a4b4c4d4e4f505152535455565758595a6162636465666768696a6b6c6d6e6f707172737475767778797a303132333435363738392b2fa2646970667358221220759d5cbdb748459681280a902614421e8fa15c09b0f4e1a80822ff4c1b8ccbf364736f6c634300080000333c73766720786d6c6e733d27687474703a2f2f7777772e77332e6f72672f323030302f73766727207072657365727665417370656374526174696f3d27784d696e594d696e206d656574272076696577426f783d273020302033353020333530273e3c7374796c653e2e62617365207b2066696c6c3a2077686974653b20666f6e742d66616d696c793a2073657269663b20666f6e742d73697a653a20323470783b207d3c2f7374796c653e3c726563742077696474683d273130302527206865696768743d2731303025272066696c6c3d27626c61636b27202f3e3c7465787420783d273530252720793d273530252720636c6173733d27626173652720646f6d696e616e742d626173656c696e653d276d6964646c652720746578742d616e63686f723d276d6964646c65273e",
  "linkReferences": {},
  "deployedLinkReferences": {}
}